{"abi":[{"type":"constructor","inputs":[{"name":"name_","type":"string","internalType":"string"},{"name":"symbol_","type":"string","internalType":"string"},{"name":"admin","type":"address","internalType":"address"}],"stateMutability":"nonpayable"},{"type":"function","name":"BURNER_ROLE","inputs":[],"outputs":[{"name":"","type":"bytes32","internalType":"bytes32"}],"stateMutability":"view"},{"type":"function","name":"CLOCK_MODE","inputs":[],"outputs":[{"name":"","type":"string","internalType":"string"}],"stateMutability":"view"},{"type":"function","name":"DEFAULT_ADMIN_ROLE","inputs":[],"outputs":[{"name":"","type":"bytes32","internalType":"bytes32"}],"stateMutability":"view"},{"type":"function","name":"DOMAIN_SEPARATOR","inputs":[],"outputs":[{"name":"","type":"bytes32","internalType":"bytes32"}],"stateMutability":"view"},{"type":"function","name":"MINTER_ROLE","inputs":[],"outputs":[{"name":"","type":"bytes32","internalType":"bytes32"}],"stateMutability":"view"},{"type":"function","name":"allowance","inputs":[{"name":"owner","type":"address","internalType":"address"},{"name":"spender","type":"address","internalType":"address"}],"outputs":[{"name":"","type":"uint256","internalType":"uint256"}],"stateMutability":"view"},{"type":"function","name":"approve","inputs":[{"name":"spender","type":"address","internalType":"address"},{"name":"value","type":"uint256","internalType":"uint256"}],"outputs":[{"name":"","type":"bool","internalType":"bool"}],"stateMutability":"nonpayable"},{"type":"function","name":"balanceOf","inputs":[{"name":"account","type":"address","internalType":"address"}],"outputs":[{"name":"","type":"uint256","internalType":"uint256"}],"stateMutability":"view"},{"type":"function","name":"burn","inputs":[{"name":"from","type":"address","internalType":"address"},{"name":"amount","type":"uint256","internalType":"uint256"}],"outputs":[],"stateMutability":"nonpayable"},{"type":"function","name":"checkpoints","inputs":[{"name":"account","type":"address","internalType":"address"},{"name":"pos","type":"uint32","internalType":"uint32"}],"outputs":[{"name":"","type":"tuple","internalType":"struct Checkpoints.Checkpoint208","components":[{"name":"_key","type":"uint48","internalType":"uint48"},{"name":"_value","type":"uint208","internalType":"uint208"}]}],"stateMutability":"view"},{"type":"function","name":"clock","inputs":[],"outputs":[{"name":"","type":"uint48","internalType":"uint48"}],"stateMutability":"view"},{"type":"function","name":"decimals","inputs":[],"outputs":[{"name":"","type":"uint8","internalType":"uint8"}],"stateMutability":"view"},{"type":"function","name":"delegate","inputs":[{"name":"delegatee","type":"address","internalType":"address"}],"outputs":[],"stateMutability":"nonpayable"},{"type":"function","name":"delegateBySig","inputs":[{"name":"delegatee","type":"address","internalType":"address"},{"name":"nonce","type":"uint256","internalType":"uint256"},{"name":"expiry","type":"uint256","internalType":"uint256"},{"name":"v","type":"uint8","internalType":"uint8"},{"name":"r","type":"bytes32","internalType":"bytes32"},{"name":"s","type":"bytes32","internalType":"bytes32"}],"outputs":[],"stateMutability":"nonpayable"},{"type":"function","name":"delegates","inputs":[{"name":"account","type":"address","internalType":"address"}],"outputs":[{"name":"","type":"address","internalType":"address"}],"stateMutability":"view"},{"type":"function","name":"eip712Domain","inputs":[],"outputs":[{"name":"fields","type":"bytes1","internalType":"bytes1"},{"name":"name","type":"string","internalType":"string"},{"name":"version","type":"string","internalType":"string"},{"name":"chainId","type":"uint256","internalType":"uint256"},{"name":"verifyingContract","type":"address","internalType":"address"},{"name":"salt","type":"bytes32","internalType":"bytes32"},{"name":"extensions","type":"uint256[]","internalType":"uint256[]"}],"stateMutability":"view"},{"type":"function","name":"getPastTotalSupply","inputs":[{"name":"timepoint","type":"uint256","internalType":"uint256"}],"outputs":[{"name":"","type":"uint256","internalType":"uint256"}],"stateMutability":"view"},{"type":"function","name":"getPastVotes","inputs":[{"name":"account","type":"address","internalType":"address"},{"name":"timepoint","type":"uint256","internalType":"uint256"}],"outputs":[{"name":"","type":"uint256","internalType":"uint256"}],"stateMutability":"view"},{"type":"function","name":"getRoleAdmin","inputs":[{"name":"role","type":"bytes32","internalType":"bytes32"}],"outputs":[{"name":"","type":"bytes32","internalType":"bytes32"}],"stateMutability":"view"},{"type":"function","name":"getVotes","inputs":[{"name":"account","type":"address","internalType":"address"}],"outputs":[{"name":"","type":"uint256","internalType":"uint256"}],"stateMutability":"view"},{"type":"function","name":"grantRole","inputs":[{"name":"role","type":"bytes32","internalType":"bytes32"},{"name":"account","type":"address","internalType":"address"}],"outputs":[],"stateMutability":"nonpayable"},{"type":"function","name":"hasRole","inputs":[{"name":"role","type":"bytes32","internalType":"bytes32"},{"name":"account","type":"address","internalType":"address"}],"outputs":[{"name":"","type":"bool","internalType":"bool"}],"stateMutability":"view"},{"type":"function","name":"mint","inputs":[{"name":"to","type":"address","internalType":"address"},{"name":"amount","type":"uint256","internalType":"uint256"}],"outputs":[],"stateMutability":"nonpayable"},{"type":"function","name":"name","inputs":[],"outputs":[{"name":"","type":"string","internalType":"string"}],"stateMutability":"view"},{"type":"function","name":"nonces","inputs":[{"name":"owner","type":"address","internalType":"address"}],"outputs":[{"name":"","type":"uint256","internalType":"uint256"}],"stateMutability":"view"},{"type":"function","name":"numCheckpoints","inputs":[{"name":"account","type":"address","internalType":"address"}],"outputs":[{"name":"","type":"uint32","internalType":"uint32"}],"stateMutability":"view"},{"type":"function","name":"permit","inputs":[{"name":"owner","type":"address","internalType":"address"},{"name":"spender","type":"address","internalType":"address"},{"name":"value","type":"uint256","internalType":"uint256"},{"name":"deadline","type":"uint256","internalType":"uint256"},{"name":"v","type":"uint8","internalType":"uint8"},{"name":"r","type":"bytes32","internalType":"bytes32"},{"name":"s","type":"bytes32","internalType":"bytes32"}],"outputs":[],"stateMutability":"nonpayable"},{"type":"function","name":"renounceRole","inputs":[{"name":"role","type":"bytes32","internalType":"bytes32"},{"name":"callerConfirmation","type":"address","internalType":"address"}],"outputs":[],"stateMutability":"nonpayable"},{"type":"function","name":"revokeRole","inputs":[{"name":"role","type":"bytes32","internalType":"bytes32"},{"name":"account","type":"address","internalType":"address"}],"outputs":[],"stateMutability":"nonpayable"},{"type":"function","name":"supportsInterface","inputs":[{"name":"interfaceId","type":"bytes4","internalType":"bytes4"}],"outputs":[{"name":"","type":"bool","internalType":"bool"}],"stateMutability":"view"},{"type":"function","name":"symbol","inputs":[],"outputs":[{"name":"","type":"string","internalType":"string"}],"stateMutability":"view"},{"type":"function","name":"totalSupply","inputs":[],"outputs":[{"name":"","type":"uint256","internalType":"uint256"}],"stateMutability":"view"},{"type":"function","name":"transfer","inputs":[{"name":"to","type":"address","internalType":"address"},{"name":"value","type":"uint256","internalType":"uint256"}],"outputs":[{"name":"","type":"bool","internalType":"bool"}],"stateMutability":"nonpayable"},{"type":"function","name":"transferFrom","inputs":[{"name":"from","type":"address","internalType":"address"},{"name":"to","type":"address","internalType":"address"},{"name":"value","type":"uint256","internalType":"uint256"}],"outputs":[{"name":"","type":"bool","internalType":"bool"}],"stateMutability":"nonpayable"},{"type":"event","name":"Approval","inputs":[{"name":"owner","type":"address","indexed":true,"internalType":"address"},{"name":"spender","type":"address","indexed":true,"internalType":"address"},{"name":"value","type":"uint256","indexed":false,"internalType":"uint256"}],"anonymous":false},{"type":"event","name":"DelegateChanged","inputs":[{"name":"delegator","type":"address","indexed":true,"internalType":"address"},{"name":"fromDelegate","type":"address","indexed":true,"internalType":"address"},{"name":"toDelegate","type":"address","indexed":true,"internalType":"address"}],"anonymous":false},{"type":"event","name":"DelegateVotesChanged","inputs":[{"name":"delegate","type":"address","indexed":true,"internalType":"address"},{"name":"previousVotes","type":"uint256","indexed":false,"internalType":"uint256"},{"name":"newVotes","type":"uint256","indexed":false,"internalType":"uint256"}],"anonymous":false},{"type":"event","name":"EIP712DomainChanged","inputs":[],"anonymous":false},{"type":"event","name":"RoleAdminChanged","inputs":[{"name":"role","type":"bytes32","indexed":true,"internalType":"bytes32"},{"name":"previousAdminRole","type":"bytes32","indexed":true,"internalType":"bytes32"},{"name":"newAdminRole","type":"bytes32","indexed":true,"internalType":"bytes32"}],"anonymous":false},{"type":"event","name":"RoleGranted","inputs":[{"name":"role","type":"bytes32","indexed":true,"internalType":"bytes32"},{"name":"account","type":"address","indexed":true,"internalType":"address"},{"name":"sender","type":"address","indexed":true,"internalType":"address"}],"anonymous":false},{"type":"event","name":"RoleRevoked","inputs":[{"name":"role","type":"bytes32","indexed":true,"internalType":"bytes32"},{"name":"account","type":"address","indexed":true,"internalType":"address"},{"name":"sender","type":"address","indexed":true,"internalType":"address"}],"anonymous":false},{"type":"event","name":"TokensBurned","inputs":[{"name":"from","type":"address","indexed":true,"internalType":"address"},{"name":"amount","type":"uint256","indexed":false,"internalType":"uint256"},{"name":"burner","type":"address","indexed":true,"internalType":"address"}],"anonymous":false},{"type":"event","name":"TokensMinted","inputs":[{"name":"to","type":"address","indexed":true,"internalType":"address"},{"name":"amount","type":"uint256","indexed":false,"internalType":"uint256"},{"name":"minter","type":"address","indexed":true,"internalType":"address"}],"anonymous":false},{"type":"event","name":"Transfer","inputs":[{"name":"from","type":"address","indexed":true,"internalType":"address"},{"name":"to","type":"address","indexed":true,"internalType":"address"},{"name":"value","type":"uint256","indexed":false,"internalType":"uint256"}],"anonymous":false},{"type":"error","name":"AccessControlBadConfirmation","inputs":[]},{"type":"error","name":"AccessControlUnauthorizedAccount","inputs":[{"name":"account","type":"address","internalType":"address"},{"name":"neededRole","type":"bytes32","internalType":"bytes32"}]},{"type":"error","name":"CheckpointUnorderedInsertion","inputs":[]},{"type":"error","name":"ECDSAInvalidSignature","inputs":[]},{"type":"error","name":"ECDSAInvalidSignatureLength","inputs":[{"name":"length","type":"uint256","internalType":"uint256"}]},{"type":"error","name":"ECDSAInvalidSignatureS","inputs":[{"name":"s","type":"bytes32","internalType":"bytes32"}]},{"type":"error","name":"ERC20ExceededSafeSupply","inputs":[{"name":"increasedSupply","type":"uint256","internalType":"uint256"},{"name":"cap","type":"uint256","internalType":"uint256"}]},{"type":"error","name":"ERC20InsufficientAllowance","inputs":[{"name":"spender","type":"address","internalType":"address"},{"name":"allowance","type":"uint256","internalType":"uint256"},{"name":"needed","type":"uint256","internalType":"uint256"}]},{"type":"error","name":"ERC20InsufficientBalance","inputs":[{"name":"sender","type":"address","internalType":"address"},{"name":"balance","type":"uint256","internalType":"uint256"},{"name":"needed","type":"uint256","internalType":"uint256"}]},{"type":"error","name":"ERC20InvalidApprover","inputs":[{"name":"approver","type":"address","internalType":"address"}]},{"type":"error","name":"ERC20InvalidReceiver","inputs":[{"name":"receiver","type":"address","internalType":"address"}]},{"type":"error","name":"ERC20InvalidSender","inputs":[{"name":"sender","type":"address","internalType":"address"}]},{"type":"error","name":"ERC20InvalidSpender","inputs":[{"name":"spender","type":"address","internalType":"address"}]},{"type":"error","name":"ERC2612ExpiredSignature","inputs":[{"name":"deadline","type":"uint256","internalType":"uint256"}]},{"type":"error","name":"ERC2612InvalidSigner","inputs":[{"name":"signer","type":"address","internalType":"address"},{"name":"owner","type":"address","internalType":"address"}]},{"type":"error","name":"ERC5805FutureLookup","inputs":[{"name":"timepoint","type":"uint256","internalType":"uint256"},{"name":"clock","type":"uint48","internalType":"uint48"}]},{"type":"error","name":"ERC6372InconsistentClock","inputs":[]},{"type":"error","name":"InvalidAccountNonce","inputs":[{"name":"account","type":"address","internalType":"address"},{"name":"currentNonce","type":"uint256","internalType":"uint256"}]},{"type":"error","name":"InvalidShortString","inputs":[]},{"type":"error","name":"SafeCastOverflowedUintDowncast","inputs":[{"name":"bits","type":"uint8","internalType":"uint8"},{"name":"value","type":"uint256","internalType":"uint256"}]},{"type":"error","name":"StringTooLong","inputs":[{"name":"str","type":"string","internalType":"string"}]},{"type":"error","name":"VotesExpiredSignature","inputs":[{"name":"expiry","type":"uint256","internalType":"uint256"}]},{"type":"error","name":"ZeroAddress","inputs":[]},{"type":"error","name":"ZeroAmount","inputs":[]}],"bytecode":{"object":"0x61016060405234801562000011575f80fd5b506040516200287a3803806200287a83398101604081905262000034916200035f565b6040805180820190915260018152603160f81b6020820152839081908185600362000060838262000470565b5060046200006f828262000470565b50620000819150839050600562000167565b610120526200009281600662000167565b61014052815160208084019190912060e052815190820120610100524660a0526200011f60e05161010051604080517f8b73c3c69bb8fe3d512ecc4cf759cc79239f7b179b0ffacaa9a75d522b39400f60208201529081019290925260608201524660808201523060a08201525f9060c00160405160208183030381529060405280519060200120905090565b60805250503060c052506001600160a01b038116620001515760405163d92e233d60e01b815260040160405180910390fd5b6200015d5f826200019f565b5050505062000594565b5f60208351101562000186576200017e836200024e565b905062000199565b8162000193848262000470565b5060ff90505b92915050565b5f828152600b602090815260408083206001600160a01b038516845290915281205460ff1662000246575f838152600b602090815260408083206001600160a01b03861684529091529020805460ff19166001179055620001fd3390565b6001600160a01b0316826001600160a01b0316847f2f8788117e7eff1d82e926ec794901d17c78024a50270940304540a733656f0d60405160405180910390a450600162000199565b505f62000199565b5f80829050601f8151111562000284578260405163305a27a960e01b81526004016200027b91906200053c565b60405180910390fd5b8051620002918262000570565b179392505050565b634e487b7160e01b5f52604160045260245ffd5b5f5b83811015620002c9578181015183820152602001620002af565b50505f910152565b5f82601f830112620002e1575f80fd5b81516001600160401b0380821115620002fe57620002fe62000299565b604051601f8301601f19908116603f0116810190828211818310171562000329576200032962000299565b8160405283815286602085880101111562000342575f80fd5b62000355846020830160208901620002ad565b9695505050505050565b5f805f6060848603121562000372575f80fd5b83516001600160401b038082111562000389575f80fd5b6200039787838801620002d1565b94506020860151915080821115620003ad575f80fd5b50620003bc86828701620002d1565b604086015190935090506001600160a01b0381168114620003db575f80fd5b809150509250925092565b600181811c90821680620003fb57607f821691505b6020821081036200041a57634e487b7160e01b5f52602260045260245ffd5b50919050565b601f8211156200046b57805f5260205f20601f840160051c81016020851015620004475750805b601f840160051c820191505b8181101562000468575f815560010162000453565b50505b505050565b81516001600160401b038111156200048c576200048c62000299565b620004a4816200049d8454620003e6565b8462000420565b602080601f831160018114620004da575f8415620004c25750858301515b5f19600386901b1c1916600185901b17855562000534565b5f85815260208120601f198616915b828110156200050a57888601518255948401946001909101908401620004e9565b50858210156200052857878501515f19600388901b60f8161c191681555b505060018460011b0185555b505050505050565b602081525f82518060208401526200055c816040850160208701620002ad565b601f01601f19169190910160400192915050565b805160208083015191908110156200041a575f1960209190910360031b1b16919050565b60805160a05160c05160e051610100516101205161014051612294620005e65f395f61116701525f61113a01525f610e8d01525f610e6501525f610dc001525f610dea01525f610e1401526122945ff3fe608060405234801561000f575f80fd5b50600436106101fd575f3560e01c806370a08231116101145780639dc29fac116100a9578063d505accf11610079578063d505accf146104a0578063d5391393146104b3578063d547741f146104da578063dd62ed3e146104ed578063f1127ed814610525575f80fd5b80639dc29fac14610460578063a217fddf14610473578063a9059cbb1461047a578063c3cda5201461048d575f80fd5b806391d14854116100e457806391d148541461041357806391ddadf41461042657806395d89b41146104455780639ab24eb01461044d575f80fd5b806370a08231146103aa5780637ecebe00146103d257806384b0196e146103e55780638e539e8c14610400575f80fd5b8063313ce5671161019557806340c10f191161016557806340c10f19146103115780634bf5d7e914610324578063587cde1e1461032c5780635c19a95c1461036f5780636fcfff4514610382575f80fd5b8063313ce567146102d45780633644e515146102e357806336568abe146102eb5780633a46b1a8146102fe575f80fd5b806323b872dd116101d057806323b872dd14610263578063248a9ca314610276578063282c51f3146102985780632f2ff15d146102bf575f80fd5b806301ffc9a71461020157806306fdde0314610229578063095ea7b31461023e57806318160ddd14610251575b5f80fd5b61021461020f366004611e52565b610564565b60405190151581526020015b60405180910390f35b61023161059a565b6040516102209190611ebc565b61021461024c366004611ee9565b61062a565b6002545b604051908152602001610220565b610214610271366004611f11565b610641565b610255610284366004611f4a565b5f908152600b602052604090206001015490565b6102557f3c11d16cbaffd01df69ce1c404f6340ee057498f5f00246190ea54220576a84881565b6102d26102cd366004611f61565b610664565b005b60405160128152602001610220565b61025561068e565b6102d26102f9366004611f61565b61069c565b61025561030c366004611ee9565b6106d4565b6102d261031f366004611ee9565b61070e565b6102316107cf565b61035761033a366004611f8b565b6001600160a01b039081165f908152600860205260409020541690565b6040516001600160a01b039091168152602001610220565b6102d261037d366004611f8b565b610847565b610395610390366004611f8b565b610856565b60405163ffffffff9091168152602001610220565b6102556103b8366004611f8b565b6001600160a01b03165f9081526020819052604090205490565b6102556103e0366004611f8b565b610860565b6103ed61086a565b6040516102209796959493929190611fa4565b61025561040e366004611f4a565b6108ac565b610214610421366004611f61565b6108d0565b61042e6108fa565b60405165ffffffffffff9091168152602001610220565b610231610903565b61025561045b366004611f8b565b610912565b6102d261046e366004611ee9565b610932565b6102555f81565b610214610488366004611ee9565b6109ea565b6102d261049b36600461204b565b6109f7565b6102d26104ae36600461209f565b610ab8565b6102557f9f2df0fed2c77648de5860a4cc508cd0818c85b8b8a1ab4ceeef8d981c8956a681565b6102d26104e8366004611f61565b610bee565b6102556104fb366004612104565b6001600160a01b039182165f90815260016020908152604080832093909416825291909152205490565b61053861053336600461212c565b610c12565b60408051825165ffffffffffff1681526020928301516001600160d01b03169281019290925201610220565b5f6001600160e01b03198216637965db0b60e01b148061059457506301ffc9a760e01b6001600160e01b03198316145b92915050565b6060600380546105a990612169565b80601f01602080910402602001604051908101604052809291908181526020018280546105d590612169565b80156106205780601f106105f757610100808354040283529160200191610620565b820191905f5260205f20905b81548152906001019060200180831161060357829003601f168201915b5050505050905090565b5f33610637818585610c36565b5060019392505050565b5f3361064e858285610c43565b610659858585610cb9565b506001949350505050565b5f828152600b602052604090206001015461067e81610d16565b6106888383610d23565b50505050565b5f610697610db4565b905090565b6001600160a01b03811633146106c55760405163334bd91960e11b815260040160405180910390fd5b6106cf8282610edd565b505050565b5f6106fe6106e183610f48565b6001600160a01b0385165f90815260096020526040902090610f96565b6001600160d01b03169392505050565b7f9f2df0fed2c77648de5860a4cc508cd0818c85b8b8a1ab4ceeef8d981c8956a661073881610d16565b6001600160a01b03831661075f5760405163d92e233d60e01b815260040160405180910390fd5b815f0361077f57604051631f2a200560e01b815260040160405180910390fd5b6107898383611046565b60405182815233906001600160a01b038516907f969cd201f68f120baff2bf3c59bc3b534434e08b69a71a14ab85cb79cd3b63e4906020015b60405180910390a3505050565b60606107d961107a565b65ffffffffffff166107e96108fa565b65ffffffffffff161461080f576040516301bfc1c560e61b815260040160405180910390fd5b5060408051808201909152601d81527f6d6f64653d626c6f636b6e756d6265722666726f6d3d64656661756c74000000602082015290565b336108528183611084565b5050565b5f610594826110f5565b5f61059482611116565b5f6060805f805f606061087b611133565b610883611160565b604080515f80825260208201909252600f60f81b9b939a50919850469750309650945092509050565b5f6108c16108b983610f48565b600a90610f96565b6001600160d01b031692915050565b5f918252600b602090815260408084206001600160a01b0393909316845291905290205460ff1690565b5f61069761107a565b6060600480546105a990612169565b6001600160a01b0381165f9081526009602052604081206108c19061118d565b7f3c11d16cbaffd01df69ce1c404f6340ee057498f5f00246190ea54220576a84861095c81610d16565b6001600160a01b0383166109835760405163d92e233d60e01b815260040160405180910390fd5b815f036109a357604051631f2a200560e01b815260040160405180910390fd5b6109ad83836111c4565b60405182815233906001600160a01b038516907f08009940fb138ae33fbb70c10b643e840c71f1654344cc173975a815e117e687906020016107c2565b5f33610637818585610cb9565b83421115610a2057604051632341d78760e11b8152600481018590526024015b60405180910390fd5b604080517fe48329057bfd03d55e49b547132e39cffd9c1820ad7b9d4c5307691425d15adf60208201526001600160a01b0388169181019190915260608101869052608081018590525f90610a9990610a919060a001604051602081830303815290604052805190602001206111f8565b858585611224565b9050610aa58187611250565b610aaf8188611084565b50505050505050565b83421115610adc5760405163313c898160e11b815260048101859052602401610a17565b5f7f6e71edae12b1b97f4d1f60370fef10105fa2faae0126114a169c64845d6126c9888888610b278c6001600160a01b03165f90815260076020526040902080546001810190915590565b6040805160208101969096526001600160a01b0394851690860152929091166060840152608083015260a082015260c0810186905260e0016040516020818303038152906040528051906020012090505f610b81826111f8565b90505f610b9082878787611224565b9050896001600160a01b0316816001600160a01b031614610bd7576040516325c0072360e11b81526001600160a01b0380831660048301528b166024820152604401610a17565b610be28a8a8a610c36565b50505050505050505050565b5f828152600b6020526040902060010154610c0881610d16565b6106888383610edd565b604080518082019091525f8082526020820152610c2f83836112a2565b9392505050565b6106cf83838360016112d6565b6001600160a01b038381165f908152600160209081526040808320938616835292905220545f198110156106885781811015610cab57604051637dc7a0d960e11b81526001600160a01b03841660048201526024810182905260448101839052606401610a17565b61068884848484035f6112d6565b6001600160a01b038316610ce257604051634b637e8f60e11b81525f6004820152602401610a17565b6001600160a01b038216610d0b5760405163ec442f0560e01b81525f6004820152602401610a17565b6106cf8383836113a8565b610d2081336113b3565b50565b5f610d2e83836108d0565b610dad575f838152600b602090815260408083206001600160a01b03861684529091529020805460ff19166001179055610d653390565b6001600160a01b0316826001600160a01b0316847f2f8788117e7eff1d82e926ec794901d17c78024a50270940304540a733656f0d60405160405180910390a4506001610594565b505f610594565b5f306001600160a01b037f000000000000000000000000000000000000000000000000000000000000000016148015610e0c57507f000000000000000000000000000000000000000000000000000000000000000046145b15610e3657507f000000000000000000000000000000000000000000000000000000000000000090565b610697604080517f8b73c3c69bb8fe3d512ecc4cf759cc79239f7b179b0ffacaa9a75d522b39400f60208201527f0000000000000000000000000000000000000000000000000000000000000000918101919091527f000000000000000000000000000000000000000000000000000000000000000060608201524660808201523060a08201525f9060c00160405160208183030381529060405280519060200120905090565b5f610ee883836108d0565b15610dad575f838152600b602090815260408083206001600160a01b0386168085529252808320805460ff1916905551339286917ff6391f5c32d9c69d2a47ea670b442974b53935d1edc7fd64eb21e047a839171b9190a4506001610594565b5f80610f526108fa565b90508065ffffffffffff168310610f8d57604051637669fc0f60e11b81526004810184905265ffffffffffff82166024820152604401610a17565b610c2f836113ec565b81545f9081816005811115610ff2575f610faf84611422565b610fb990856121b5565b5f8881526020902090915081015465ffffffffffff9081169087161015610fe257809150610ff0565b610fed8160016121c8565b92505b505b5f610fff8787858561157a565b9050801561103957611023876110166001846121b5565b5f91825260209091200190565b54600160301b90046001600160d01b031661103b565b5f5b979650505050505050565b6001600160a01b03821661106f5760405163ec442f0560e01b81525f6004820152602401610a17565b6108525f83836113a8565b5f610697436113ec565b6001600160a01b038281165f8181526008602052604080822080548686166001600160a01b0319821681179092559151919094169392849290917f3134e8a2e6d97e929a7e54011ea5485d7d196dd5f0ba4d4ef95803e8e3fc257f9190a46106cf81836110f0866115d0565b6115ed565b6001600160a01b0381165f9081526009602052604081205461059490611756565b6001600160a01b0381165f90815260076020526040812054610594565b60606106977f00000000000000000000000000000000000000000000000000000000000000006005611786565b60606106977f00000000000000000000000000000000000000000000000000000000000000006006611786565b80545f9080156111bc576111a6836110166001846121b5565b54600160301b90046001600160d01b0316610c2f565b5f9392505050565b6001600160a01b0382166111ed57604051634b637e8f60e11b81525f6004820152602401610a17565b610852825f836113a8565b5f610594611204610db4565b8360405161190160f01b8152600281019290925260228201526042902090565b5f805f806112348888888861182f565b92509250925061124482826118f7565b50909695505050505050565b6001600160a01b0382165f9081526007602052604090208054600181019091558181146106cf576040516301d4b62360e61b81526001600160a01b038416600482015260248101829052604401610a17565b604080518082019091525f80825260208201526001600160a01b0383165f908152600960205260409020610c2f90836119af565b6001600160a01b0384166112ff5760405163e602df0560e01b81525f6004820152602401610a17565b6001600160a01b03831661132857604051634a1406b160e11b81525f6004820152602401610a17565b6001600160a01b038085165f908152600160209081526040808320938716835292905220829055801561068857826001600160a01b0316846001600160a01b03167f8c5be1e5ebec7d5bd14f71427d1e84f3dd0314c0f7b2291e5b200ac8c7c3b9258460405161139a91815260200190565b60405180910390a350505050565b6106cf838383611a1c565b6113bd82826108d0565b6108525760405163e2517d3f60e01b81526001600160a01b038216600482015260248101839052604401610a17565b5f65ffffffffffff82111561141e576040516306dfcc6560e41b81526030600482015260248101839052604401610a17565b5090565b5f6001821161142f575090565b816001600160801b82106114485760809190911c9060401b5b6801000000000000000082106114635760409190911c9060201b5b640100000000821061147a5760209190911c9060101b5b62010000821061148f5760109190911c9060081b5b61010082106114a35760089190911c9060041b5b601082106114b65760049190911c9060021b5b600482106114c25760011b5b600302600190811c908185816114da576114da6121db565b048201901c905060018185816114f2576114f26121db565b048201901c9050600181858161150a5761150a6121db565b048201901c90506001818581611522576115226121db565b048201901c9050600181858161153a5761153a6121db565b048201901c90506001818581611552576115526121db565b048201901c905061157181858161156b5761156b6121db565b04821190565b90039392505050565b5f5b818310156115c8575f85815260209020838316600285851804019081015465ffffffffffff868116911611156115b4578092506115c2565b6115bf8160016121c8565b93505b5061157c565b509392505050565b6001600160a01b0381165f90815260208190526040812054610594565b816001600160a01b0316836001600160a01b03161415801561160e57505f81115b156106cf576001600160a01b038316156116b5576001600160a01b0383165f908152600960205260408120819061165090611a8261164b86611a8d565b611ac0565b6001600160d01b031691506001600160d01b03169150846001600160a01b03167fdec2bacdd2f05b59de34da9b523dff8be42e5e38e818c82fdb0bae774387a72483836040516116aa929190918252602082015260400190565b60405180910390a250505b6001600160a01b038216156106cf576001600160a01b0382165f90815260096020526040812081906116ed90611af861164b86611a8d565b6001600160d01b031691506001600160d01b03169150836001600160a01b03167fdec2bacdd2f05b59de34da9b523dff8be42e5e38e818c82fdb0bae774387a7248383604051611747929190918252602082015260400190565b60405180910390a25050505050565b5f63ffffffff82111561141e576040516306dfcc6560e41b81526020600482015260248101839052604401610a17565b606060ff83146117a05761179983611b03565b9050610594565b8180546117ac90612169565b80601f01602080910402602001604051908101604052809291908181526020018280546117d890612169565b80156118235780601f106117fa57610100808354040283529160200191611823565b820191905f5260205f20905b81548152906001019060200180831161180657829003601f168201915b50505050509050610594565b5f80807f7fffffffffffffffffffffffffffffff5d576e7357a4501ddfe92f46681b20a084111561186857505f915060039050826118ed565b604080515f808252602082018084528a905260ff891692820192909252606081018790526080810186905260019060a0016020604051602081039080840390855afa1580156118b9573d5f803e3d5ffd5b5050604051601f1901519150506001600160a01b0381166118e457505f9250600191508290506118ed565b92505f91508190505b9450945094915050565b5f82600381111561190a5761190a6121ef565b03611913575050565b6001826003811115611927576119276121ef565b036119455760405163f645eedf60e01b815260040160405180910390fd5b6002826003811115611959576119596121ef565b0361197a5760405163fce698f760e01b815260048101829052602401610a17565b600382600381111561198e5761198e6121ef565b03610852576040516335e2f38360e21b815260048101829052602401610a17565b604080518082019091525f8082526020820152825f018263ffffffff16815481106119dc576119dc612203565b5f9182526020918290206040805180820190915291015465ffffffffffff81168252600160301b90046001600160d01b0316918101919091529392505050565b611a27838383611b40565b6001600160a01b038316611a77575f611a3f60025490565b90506001600160d01b0380821115611a7457604051630e58ae9360e11b81526004810183905260248101829052604401610a17565b50505b6106cf838383611c59565b5f610c2f8284612217565b5f6001600160d01b0382111561141e576040516306dfcc6560e41b815260d0600482015260248101839052604401610a17565b5f80611aeb611acd6108fa565b611ae3611ad98861118d565b868863ffffffff16565b879190611cce565b915091505b935093915050565b5f610c2f828461223e565b60605f611b0f83611cdb565b6040805160208082528183019092529192505f91906020820181803683375050509182525060208101929092525090565b6001600160a01b038316611b6a578060025f828254611b5f91906121c8565b90915550611bda9050565b6001600160a01b0383165f9081526020819052604090205481811015611bbc5760405163391434e360e21b81526001600160a01b03851660048201526024810182905260448101839052606401610a17565b6001600160a01b0384165f9081526020819052604090209082900390555b6001600160a01b038216611bf657600280548290039055611c14565b6001600160a01b0382165f9081526020819052604090208054820190555b816001600160a01b0316836001600160a01b03167fddf252ad1be2c89b69c2b068fc378daa952ba7f163c4a11628f55a4df523b3ef836040516107c291815260200190565b6001600160a01b038316611c7b57611c78600a611af861164b84611a8d565b50505b6001600160a01b038216611c9d57611c9a600a611a8261164b84611a8d565b50505b6001600160a01b038381165f908152600860205260408082205485841683529120546106cf929182169116836115ed565b5f80611aeb858585611d02565b5f60ff8216601f81111561059457604051632cd44ac360e21b815260040160405180910390fd5b82545f9081908015611df8575f611d1e876110166001856121b5565b805490915065ffffffffffff80821691600160301b90046001600160d01b0316908816821115611d6157604051632520601d60e01b815260040160405180910390fd5b8765ffffffffffff168265ffffffffffff1603611d9a57825465ffffffffffff16600160301b6001600160d01b03891602178355611dea565b6040805180820190915265ffffffffffff808a1682526001600160d01b03808a1660208085019182528d54600181018f555f8f81529190912094519151909216600160301b029216919091179101555b9450859350611af092505050565b50506040805180820190915265ffffffffffff80851682526001600160d01b0380851660208085019182528854600181018a555f8a815291822095519251909316600160301b029190931617920191909155905081611af0565b5f60208284031215611e62575f80fd5b81356001600160e01b031981168114610c2f575f80fd5b5f81518084525f5b81811015611e9d57602081850181015186830182015201611e81565b505f602082860101526020601f19601f83011685010191505092915050565b602081525f610c2f6020830184611e79565b80356001600160a01b0381168114611ee4575f80fd5b919050565b5f8060408385031215611efa575f80fd5b611f0383611ece565b946020939093013593505050565b5f805f60608486031215611f23575f80fd5b611f2c84611ece565b9250611f3a60208501611ece565b9150604084013590509250925092565b5f60208284031215611f5a575f80fd5b5035919050565b5f8060408385031215611f72575f80fd5b82359150611f8260208401611ece565b90509250929050565b5f60208284031215611f9b575f80fd5b610c2f82611ece565b60ff60f81b881681525f602060e06020840152611fc460e084018a611e79565b8381036040850152611fd6818a611e79565b606085018990526001600160a01b038816608086015260a0850187905284810360c0860152855180825260208088019350909101905f5b818110156120295783518352928401929184019160010161200d565b50909c9b505050505050505050505050565b803560ff81168114611ee4575f80fd5b5f805f805f8060c08789031215612060575f80fd5b61206987611ece565b955060208701359450604087013593506120856060880161203b565b92506080870135915060a087013590509295509295509295565b5f805f805f805f60e0888a0312156120b5575f80fd5b6120be88611ece565b96506120cc60208901611ece565b955060408801359450606088013593506120e86080890161203b565b925060a0880135915060c0880135905092959891949750929550565b5f8060408385031215612115575f80fd5b61211e83611ece565b9150611f8260208401611ece565b5f806040838503121561213d575f80fd5b61214683611ece565b9150602083013563ffffffff8116811461215e575f80fd5b809150509250929050565b600181811c9082168061217d57607f821691505b60208210810361219b57634e487b7160e01b5f52602260045260245ffd5b50919050565b634e487b7160e01b5f52601160045260245ffd5b81810381811115610594576105946121a1565b80820180821115610594576105946121a1565b634e487b7160e01b5f52601260045260245ffd5b634e487b7160e01b5f52602160045260245ffd5b634e487b7160e01b5f52603260045260245ffd5b6001600160d01b03828116828216039080821115612237576122376121a1565b5092915050565b6001600160d01b03818116838216019080821115612237576122376121a156fea26469706673582212204c5f983d3e31b8777a442d12c674856ba821fce6bf37919d299e0685942f991764736f6c63430008180033","linkReferences":{}},"methodIdentifiers":{"BURNER_ROLE()":"282c51f3","CLOCK_MODE()":"4bf5d7e9","DEFAULT_ADMIN_ROLE()":"a217fddf","DOMAIN_SEPARATOR()":"3644e515","MINTER_ROLE()":"d5391393","allowance(address,address)":"dd62ed3e","approve(address,uint256)":"095ea7b3","balanceOf(address)":"70a08231","burn(address,uint256)":"9dc29fac","checkpoints(address,uint32)":"f1127ed8","clock()":"91ddadf4","decimals()":"313ce567","delegate(address)":"5c19a95c","delegateBySig(address,uint256,uint256,uint8,bytes32,bytes32)":"c3cda520","delegates(address)":"587cde1e","eip712Domain()":"84b0196e","getPastTotalSupply(uint256)":"8e539e8c","getPastVotes(address,uint256)":"3a46b1a8","getRoleAdmin(bytes32)":"248a9ca3","getVotes(address)":"9ab24eb0","grantRole(bytes32,address)":"2f2ff15d","hasRole(bytes32,address)":"91d14854","mint(address,uint256)":"40c10f19","name()":"06fdde03","nonces(address)":"7ecebe00","numCheckpoints(address)":"6fcfff45","permit(address,address,uint256,uint256,uint8,bytes32,bytes32)":"d505accf","renounceRole(bytes32,address)":"36568abe","revokeRole(bytes32,address)":"d547741f","supportsInterface(bytes4)":"01ffc9a7","symbol()":"95d89b41","totalSupply()":"18160ddd","transfer(address,uint256)":"a9059cbb","transferFrom(address,address,uint256)":"23b872dd"},"id":92}