{"abi":[{"type":"constructor","inputs":[],"stateMutability":"nonpayable"},{"type":"function","name":"UPGRADE_INTERFACE_VERSION","inputs":[],"outputs":[{"name":"","type":"string","internalType":"string"}],"stateMutability":"view"},{"type":"function","name":"allowance","inputs":[{"name":"owner","type":"address","internalType":"address"},{"name":"spender","type":"address","internalType":"address"}],"outputs":[{"name":"","type":"uint256","internalType":"uint256"}],"stateMutability":"view"},{"type":"function","name":"approve","inputs":[{"name":"spender","type":"address","internalType":"address"},{"name":"value","type":"uint256","internalType":"uint256"}],"outputs":[{"name":"","type":"bool","internalType":"bool"}],"stateMutability":"nonpayable"},{"type":"function","name":"asset","inputs":[],"outputs":[{"name":"","type":"address","internalType":"address"}],"stateMutability":"view"},{"type":"function","name":"balanceOf","inputs":[{"name":"account","type":"address","internalType":"address"}],"outputs":[{"name":"","type":"uint256","internalType":"uint256"}],"stateMutability":"view"},{"type":"function","name":"convertToAssets","inputs":[{"name":"shares","type":"uint256","internalType":"uint256"}],"outputs":[{"name":"","type":"uint256","internalType":"uint256"}],"stateMutability":"view"},{"type":"function","name":"convertToShares","inputs":[{"name":"assets","type":"uint256","internalType":"uint256"}],"outputs":[{"name":"","type":"uint256","internalType":"uint256"}],"stateMutability":"view"},{"type":"function","name":"decimals","inputs":[],"outputs":[{"name":"","type":"uint8","internalType":"uint8"}],"stateMutability":"view"},{"type":"function","name":"deposit","inputs":[{"name":"assets","type":"uint256","internalType":"uint256"},{"name":"receiver","type":"address","internalType":"address"}],"outputs":[{"name":"shares","type":"uint256","internalType":"uint256"}],"stateMutability":"nonpayable"},{"type":"function","name":"depositCap","inputs":[],"outputs":[{"name":"","type":"uint256","internalType":"uint256"}],"stateMutability":"view"},{"type":"function","name":"depositsPaused","inputs":[],"outputs":[{"name":"","type":"bool","internalType":"bool"}],"stateMutability":"view"},{"type":"function","name":"initialize","inputs":[{"name":"asset_","type":"address","internalType":"address"},{"name":"name_","type":"string","internalType":"string"},{"name":"symbol_","type":"string","internalType":"string"},{"name":"owner_","type":"address","internalType":"address"},{"name":"depositCap_","type":"uint256","internalType":"uint256"}],"outputs":[],"stateMutability":"nonpayable"},{"type":"function","name":"maxDeposit","inputs":[{"name":"","type":"address","internalType":"address"}],"outputs":[{"name":"","type":"uint256","internalType":"uint256"}],"stateMutability":"view"},{"type":"function","name":"maxMint","inputs":[{"name":"","type":"address","internalType":"address"}],"outputs":[{"name":"","type":"uint256","internalType":"uint256"}],"stateMutability":"view"},{"type":"function","name":"maxRedeem","inputs":[{"name":"owner","type":"address","internalType":"address"}],"outputs":[{"name":"","type":"uint256","internalType":"uint256"}],"stateMutability":"view"},{"type":"function","name":"maxWithdraw","inputs":[{"name":"owner","type":"address","internalType":"address"}],"outputs":[{"name":"","type":"uint256","internalType":"uint256"}],"stateMutability":"view"},{"type":"function","name":"mint","inputs":[{"name":"shares","type":"uint256","internalType":"uint256"},{"name":"receiver","type":"address","internalType":"address"}],"outputs":[{"name":"assets","type":"uint256","internalType":"uint256"}],"stateMutability":"nonpayable"},{"type":"function","name":"name","inputs":[],"outputs":[{"name":"","type":"string","internalType":"string"}],"stateMutability":"view"},{"type":"function","name":"owner","inputs":[],"outputs":[{"name":"","type":"address","internalType":"address"}],"stateMutability":"view"},{"type":"function","name":"previewDeposit","inputs":[{"name":"assets","type":"uint256","internalType":"uint256"}],"outputs":[{"name":"","type":"uint256","internalType":"uint256"}],"stateMutability":"view"},{"type":"function","name":"previewMint","inputs":[{"name":"shares","type":"uint256","internalType":"uint256"}],"outputs":[{"name":"","type":"uint256","internalType":"uint256"}],"stateMutability":"view"},{"type":"function","name":"previewRedeem","inputs":[{"name":"shares","type":"uint256","internalType":"uint256"}],"outputs":[{"name":"","type":"uint256","internalType":"uint256"}],"stateMutability":"view"},{"type":"function","name":"previewWithdraw","inputs":[{"name":"assets","type":"uint256","internalType":"uint256"}],"outputs":[{"name":"","type":"uint256","internalType":"uint256"}],"stateMutability":"view"},{"type":"function","name":"proxiableUUID","inputs":[],"outputs":[{"name":"","type":"bytes32","internalType":"bytes32"}],"stateMutability":"view"},{"type":"function","name":"redeem","inputs":[{"name":"shares","type":"uint256","internalType":"uint256"},{"name":"receiver","type":"address","internalType":"address"},{"name":"owner_","type":"address","internalType":"address"}],"outputs":[{"name":"assets","type":"uint256","internalType":"uint256"}],"stateMutability":"nonpayable"},{"type":"function","name":"renounceOwnership","inputs":[],"outputs":[],"stateMutability":"nonpayable"},{"type":"function","name":"setDepositCap","inputs":[{"name":"newCap","type":"uint256","internalType":"uint256"}],"outputs":[],"stateMutability":"nonpayable"},{"type":"function","name":"setDepositsPaused","inputs":[{"name":"paused","type":"bool","internalType":"bool"}],"outputs":[],"stateMutability":"nonpayable"},{"type":"function","name":"symbol","inputs":[],"outputs":[{"name":"","type":"string","internalType":"string"}],"stateMutability":"view"},{"type":"function","name":"totalAssets","inputs":[],"outputs":[{"name":"","type":"uint256","internalType":"uint256"}],"stateMutability":"view"},{"type":"function","name":"totalSupply","inputs":[],"outputs":[{"name":"","type":"uint256","internalType":"uint256"}],"stateMutability":"view"},{"type":"function","name":"transfer","inputs":[{"name":"to","type":"address","internalType":"address"},{"name":"value","type":"uint256","internalType":"uint256"}],"outputs":[{"name":"","type":"bool","internalType":"bool"}],"stateMutability":"nonpayable"},{"type":"function","name":"transferFrom","inputs":[{"name":"from","type":"address","internalType":"address"},{"name":"to","type":"address","internalType":"address"},{"name":"value","type":"uint256","internalType":"uint256"}],"outputs":[{"name":"","type":"bool","internalType":"bool"}],"stateMutability":"nonpayable"},{"type":"function","name":"transferOwnership","inputs":[{"name":"newOwner","type":"address","internalType":"address"}],"outputs":[],"stateMutability":"nonpayable"},{"type":"function","name":"upgradeToAndCall","inputs":[{"name":"newImplementation","type":"address","internalType":"address"},{"name":"data","type":"bytes","internalType":"bytes"}],"outputs":[],"stateMutability":"payable"},{"type":"function","name":"withdraw","inputs":[{"name":"assets","type":"uint256","internalType":"uint256"},{"name":"receiver","type":"address","internalType":"address"},{"name":"owner_","type":"address","internalType":"address"}],"outputs":[{"name":"shares","type":"uint256","internalType":"uint256"}],"stateMutability":"nonpayable"},{"type":"event","name":"Approval","inputs":[{"name":"owner","type":"address","indexed":true,"internalType":"address"},{"name":"spender","type":"address","indexed":true,"internalType":"address"},{"name":"value","type":"uint256","indexed":false,"internalType":"uint256"}],"anonymous":false},{"type":"event","name":"Deposit","inputs":[{"name":"sender","type":"address","indexed":true,"internalType":"address"},{"name":"owner","type":"address","indexed":true,"internalType":"address"},{"name":"assets","type":"uint256","indexed":false,"internalType":"uint256"},{"name":"shares","type":"uint256","indexed":false,"internalType":"uint256"}],"anonymous":false},{"type":"event","name":"DepositCapSet","inputs":[{"name":"newCap","type":"uint256","indexed":false,"internalType":"uint256"}],"anonymous":false},{"type":"event","name":"DepositsPaused","inputs":[{"name":"paused","type":"bool","indexed":false,"internalType":"bool"}],"anonymous":false},{"type":"event","name":"Initialized","inputs":[{"name":"version","type":"uint64","indexed":false,"internalType":"uint64"}],"anonymous":false},{"type":"event","name":"OwnershipTransferred","inputs":[{"name":"previousOwner","type":"address","indexed":true,"internalType":"address"},{"name":"newOwner","type":"address","indexed":true,"internalType":"address"}],"anonymous":false},{"type":"event","name":"Transfer","inputs":[{"name":"from","type":"address","indexed":true,"internalType":"address"},{"name":"to","type":"address","indexed":true,"internalType":"address"},{"name":"value","type":"uint256","indexed":false,"internalType":"uint256"}],"anonymous":false},{"type":"event","name":"Upgraded","inputs":[{"name":"implementation","type":"address","indexed":true,"internalType":"address"}],"anonymous":false},{"type":"event","name":"Withdraw","inputs":[{"name":"sender","type":"address","indexed":true,"internalType":"address"},{"name":"receiver","type":"address","indexed":true,"internalType":"address"},{"name":"owner","type":"address","indexed":true,"internalType":"address"},{"name":"assets","type":"uint256","indexed":false,"internalType":"uint256"},{"name":"shares","type":"uint256","indexed":false,"internalType":"uint256"}],"anonymous":false},{"type":"error","name":"AddressEmptyCode","inputs":[{"name":"target","type":"address","internalType":"address"}]},{"type":"error","name":"CapExceeded","inputs":[{"name":"requested","type":"uint256","internalType":"uint256"},{"name":"cap","type":"uint256","internalType":"uint256"}]},{"type":"error","name":"DepositsPaused_","inputs":[]},{"type":"error","name":"ERC1967InvalidImplementation","inputs":[{"name":"implementation","type":"address","internalType":"address"}]},{"type":"error","name":"ERC1967NonPayable","inputs":[]},{"type":"error","name":"ERC20InsufficientAllowance","inputs":[{"name":"spender","type":"address","internalType":"address"},{"name":"allowance","type":"uint256","internalType":"uint256"},{"name":"needed","type":"uint256","internalType":"uint256"}]},{"type":"error","name":"ERC20InsufficientBalance","inputs":[{"name":"sender","type":"address","internalType":"address"},{"name":"balance","type":"uint256","internalType":"uint256"},{"name":"needed","type":"uint256","internalType":"uint256"}]},{"type":"error","name":"ERC20InvalidApprover","inputs":[{"name":"approver","type":"address","internalType":"address"}]},{"type":"error","name":"ERC20InvalidReceiver","inputs":[{"name":"receiver","type":"address","internalType":"address"}]},{"type":"error","name":"ERC20InvalidSender","inputs":[{"name":"sender","type":"address","internalType":"address"}]},{"type":"error","name":"ERC20InvalidSpender","inputs":[{"name":"spender","type":"address","internalType":"address"}]},{"type":"error","name":"ERC4626ExceededMaxDeposit","inputs":[{"name":"receiver","type":"address","internalType":"address"},{"name":"assets","type":"uint256","internalType":"uint256"},{"name":"max","type":"uint256","internalType":"uint256"}]},{"type":"error","name":"ERC4626ExceededMaxMint","inputs":[{"name":"receiver","type":"address","internalType":"address"},{"name":"shares","type":"uint256","internalType":"uint256"},{"name":"max","type":"uint256","internalType":"uint256"}]},{"type":"error","name":"ERC4626ExceededMaxRedeem","inputs":[{"name":"owner","type":"address","internalType":"address"},{"name":"shares","type":"uint256","internalType":"uint256"},{"name":"max","type":"uint256","internalType":"uint256"}]},{"type":"error","name":"ERC4626ExceededMaxWithdraw","inputs":[{"name":"owner","type":"address","internalType":"address"},{"name":"assets","type":"uint256","internalType":"uint256"},{"name":"max","type":"uint256","internalType":"uint256"}]},{"type":"error","name":"FailedCall","inputs":[]},{"type":"error","name":"InvalidInitialization","inputs":[]},{"type":"error","name":"NotInitializing","inputs":[]},{"type":"error","name":"OwnableInvalidOwner","inputs":[{"name":"owner","type":"address","internalType":"address"}]},{"type":"error","name":"OwnableUnauthorizedAccount","inputs":[{"name":"account","type":"address","internalType":"address"}]},{"type":"error","name":"ReentrancyGuardReentrantCall","inputs":[]},{"type":"error","name":"SafeERC20FailedOperation","inputs":[{"name":"token","type":"address","internalType":"address"}]},{"type":"error","name":"UUPSUnauthorizedCallContext","inputs":[]},{"type":"error","name":"UUPSUnsupportedProxiableUUID","inputs":[{"name":"slot","type":"bytes32","internalType":"bytes32"}]},{"type":"error","name":"ZeroAssets","inputs":[]},{"type":"error","name":"ZeroShares","inputs":[]}],"bytecode":{"object":"0x60a060405230608052348015610013575f80fd5b5060017f9b779b17422d0df92223018b32b4d1fa46e071723d6817e2486d003becc55f0055610040610045565b6100f7565b7ff0c57e16840df040f15088dc2f81fe391c3923bec73e23a9662efc9c229c6a00805468010000000000000000900460ff16156100955760405163f92ee8a960e01b815260040160405180910390fd5b80546001600160401b03908116146100f45780546001600160401b0319166001600160401b0390811782556040519081527fc7f505b2f371ae2175ee4913f4499e1f2633a7b5936321eed1cdaeb6115181d29060200160405180910390a15b50565b6080516122e16200011e5f395f8181610e9d01528181610ec6015261100501526122e15ff3fe608060405260043610610207575f3560e01c806375b30be611610113578063ba0876521161009d578063d905777e1161006d578063d905777e146105a6578063dbd5edc7146105c5578063dd62ed3e146105d9578063ef8b30f714610568578063f2fde38b146105f8575f80fd5b8063ba08765214610549578063c63d75b614610385578063c6e6f59214610568578063ce96cb7714610587575f80fd5b806395d89b41116100e357806395d89b41146104a8578063a9059cbb146104bc578063ad3cb1cc146104db578063b3d7f6b91461050b578063b460af941461052a575f80fd5b806375b30be61461043757806386651203146104565780638da5cb5b1461047557806394bf804d14610489575f80fd5b806338d52e0f1161019457806352d1902d1161016457806352d1902d146103b857806360da3e83146103cc5780636e553f65146103e557806370a0823114610404578063715018a614610423575f80fd5b806338d52e0f14610359578063402d267d146103855780634cdad506146102535780634f1ef286146103a5575f80fd5b80630a28a477116101da5780630a28a477146102a157806318160ddd146102c05780631c481e2d146102f357806323b872dd14610314578063313ce56714610333575f80fd5b806301e1d1141461020b57806306fdde031461023257806307a2d13a14610253578063095ea7b314610272575b5f80fd5b348015610216575f80fd5b5061021f610617565b6040519081526020015b60405180910390f35b34801561023d575f80fd5b5061024661068d565b6040516102299190611c28565b34801561025e575f80fd5b5061021f61026d366004611c74565b61074d565b34801561027d575f80fd5b5061029161028c366004611ca6565b61075e565b6040519015158152602001610229565b3480156102ac575f80fd5b5061021f6102bb366004611c74565b610775565b3480156102cb575f80fd5b507f52c63247e1f47db19d5ce0460030c497f067ca4cebf71ba98eeadabe20bace025461021f565b3480156102fe575f80fd5b5061031261030d366004611cce565b610781565b005b34801561031f575f80fd5b5061029161032e366004611ced565b6107d1565b34801561033e575f80fd5b506103476107f6565b60405160ff9091168152602001610229565b348015610364575f80fd5b5061036d6107ff565b6040516001600160a01b039091168152602001610229565b348015610390575f80fd5b5061021f61039f366004611d26565b505f1990565b6103126103b3366004611dc6565b610833565b3480156103c3575f80fd5b5061021f610852565b3480156103d7575f80fd5b506001546102919060ff1681565b3480156103f0575f80fd5b5061021f6103ff366004611e24565b61086d565b34801561040f575f80fd5b5061021f61041e366004611d26565b610905565b34801561042e575f80fd5b5061031261092b565b348015610442575f80fd5b50610312610451366004611e6c565b61093e565b348015610461575f80fd5b50610312610470366004611c74565b610a52565b348015610480575f80fd5b5061036d610a8e565b348015610494575f80fd5b5061021f6104a3366004611e24565b610ab6565b3480156104b3575f80fd5b50610246610b39565b3480156104c7575f80fd5b506102916104d6366004611ca6565b610b77565b3480156104e6575f80fd5b50610246604051806040016040528060058152602001640352e302e360dc1b81525081565b348015610516575f80fd5b5061021f610525366004611c74565b610b84565b348015610535575f80fd5b5061021f610544366004611ef3565b610b90565b348015610554575f80fd5b5061021f610563366004611ef3565b610bdc565b348015610573575f80fd5b5061021f610582366004611c74565b610c10565b348015610592575f80fd5b5061021f6105a1366004611d26565b610c1b565b3480156105b1575f80fd5b5061021f6105c0366004611d26565b610c24565b3480156105d0575f80fd5b5061021f5f5481565b3480156105e4575f80fd5b5061021f6105f3366004611f2c565b610c2e565b348015610603575f80fd5b50610312610612366004611d26565b610c77565b5f6106206107ff565b6040516370a0823160e01b81523060048201526001600160a01b0391909116906370a0823190602401602060405180830381865afa158015610664573d5f803e3d5ffd5b505050506040513d601f19601f820116820180604052508101906106889190611f54565b905090565b7f52c63247e1f47db19d5ce0460030c497f067ca4cebf71ba98eeadabe20bace0380546060915f8051602061224c833981519152916106cb90611f6b565b80601f01602080910402602001604051908101604052809291908181526020018280546106f790611f6b565b80156107425780601f1061071957610100808354040283529160200191610742565b820191905f5260205f20905b81548152906001019060200180831161072557829003601f168201915b505050505091505090565b5f610758825f610cb9565b92915050565b5f3361076b818585610d10565b5060019392505050565b5f610758826001610d22565b610789610d70565b6001805460ff19168215159081179091556040519081527f5ef34f53269a04b5b817e5be24a51ba6b477118b399ec9dd5b2baf5b299563dc906020015b60405180910390a150565b5f336107de858285610da2565b6107e9858585610df3565b60019150505b9392505050565b5f610688610e50565b5f807f0773e532dfede91f04b12a73d3d2acd361424f41f76b4fb79f090161e36b4e005b546001600160a01b031692915050565b61083b610e92565b61084482610f36565b61084e8282610f3e565b5050565b5f61085b610ffa565b505f8051602061226c83398151915290565b5f610876611043565b60015460ff161561089a5760405163531c765560e11b815260040160405180910390fd5b825f036108ba57604051630cb65c7760e21b815260040160405180910390fd5b6108c38361105e565b6108cd83836110bc565b9050805f036108ef57604051639811e0c760e01b815260040160405180910390fd5b61075860015f8051602061228c83398151915255565b6001600160a01b03165f9081525f8051602061224c833981519152602052604090205490565b610933610d70565b61093c5f6110df565b565b5f61094761114f565b805490915060ff600160401b820416159067ffffffffffffffff165f8115801561096e5750825b90505f8267ffffffffffffffff16600114801561098a5750303b155b905081158015610998575080155b156109b65760405163f92ee8a960e01b815260040160405180910390fd5b845467ffffffffffffffff1916600117855583156109e057845460ff60401b1916600160401b1785555b6109ea8989611177565b6109f38a611189565b6109fc8761119a565b5f8690558315610a4657845460ff60401b19168555604051600181527fc7f505b2f371ae2175ee4913f4499e1f2633a7b5936321eed1cdaeb6115181d29060200160405180910390a15b50505050505050505050565b610a5a610d70565b5f8190556040518181527f50e5341d7a4ad030a1a03c7b2bccfa67438c0bdf5c398a3b1d7a64babfbf97fe906020016107c6565b5f807f9016d09d72d40fdae2fd8ceac6b6234c7706214fd39c1cd1e609a0528c199300610823565b5f610abf611043565b60015460ff1615610ae35760405163531c765560e11b815260040160405180910390fd5b825f03610b0357604051639811e0c760e01b815260040160405180910390fd5b610b0c83610b84565b9050610b178161105e565b610b2183836111ab565b905061075860015f8051602061228c83398151915255565b7f52c63247e1f47db19d5ce0460030c497f067ca4cebf71ba98eeadabe20bace0480546060915f8051602061224c833981519152916106cb90611f6b565b5f3361076b818585610df3565b5f610758826001610cb9565b5f610b99611043565b835f03610bb957604051630cb65c7760e21b815260040160405180910390fd5b610bc48484846111c6565b90506107ef60015f8051602061228c83398151915255565b5f610be5611043565b835f03610c0557604051639811e0c760e01b815260040160405180910390fd5b610bc484848461121c565b5f610758825f610d22565b5f61075861026d835b5f61075882610905565b6001600160a01b039182165f9081527f52c63247e1f47db19d5ce0460030c497f067ca4cebf71ba98eeadabe20bace016020908152604080832093909416825291909152205490565b610c7f610d70565b6001600160a01b038116610cad57604051631e4fbdf760e01b81525f60048201526024015b60405180910390fd5b610cb6816110df565b50565b5f6107ef610cc5610617565b610cd0906001611fb7565b610cdb5f600a6120aa565b7f52c63247e1f47db19d5ce0460030c497f067ca4cebf71ba98eeadabe20bace0254610d079190611fb7565b85919085611269565b610d1d83838360016112ab565b505050565b5f6107ef610d3182600a6120aa565b7f52c63247e1f47db19d5ce0460030c497f067ca4cebf71ba98eeadabe20bace0254610d5d9190611fb7565b610d65610617565b610d07906001611fb7565b33610d79610a8e565b6001600160a01b03161461093c5760405163118cdaa760e01b8152336004820152602401610ca4565b5f610dad8484610c2e565b90505f19811015610ded5781811015610ddf57828183604051637dc7a0d960e11b8152600401610ca4939291906120b8565b610ded84848484035f6112ab565b50505050565b6001600160a01b038316610e1c57604051634b637e8f60e11b81525f6004820152602401610ca4565b6001600160a01b038216610e455760405163ec442f0560e01b81525f6004820152602401610ca4565b610d1d83838361138f565b5f807f0773e532dfede91f04b12a73d3d2acd361424f41f76b4fb79f090161e36b4e0090505f8154610e8c9190600160a01b900460ff166120d9565b91505090565b306001600160a01b037f0000000000000000000000000000000000000000000000000000000000000000161480610f1857507f00000000000000000000000000000000000000000000000000000000000000006001600160a01b0316610f0c5f8051602061226c833981519152546001600160a01b031690565b6001600160a01b031614155b1561093c5760405163703e46dd60e11b815260040160405180910390fd5b610cb6610d70565b816001600160a01b03166352d1902d6040518163ffffffff1660e01b8152600401602060405180830381865afa925050508015610f98575060408051601f3d908101601f19168201909252610f9591810190611f54565b60015b610fc057604051634c9c8ce360e01b81526001600160a01b0383166004820152602401610ca4565b5f8051602061226c8339815191528114610ff057604051632a87526960e21b815260048101829052602401610ca4565b610d1d83836114b5565b306001600160a01b037f0000000000000000000000000000000000000000000000000000000000000000161461093c5760405163703e46dd60e11b815260040160405180910390fd5b61104b61150a565b60025f8051602061228c83398151915255565b5f541580159061108057505f5481611074610617565b61107e9190611fb7565b115b15610cb6578061108e610617565b6110989190611fb7565b5f5460405163f480e28560e01b815260048101929092526024820152604401610ca4565b5f5f195f6110c985610c10565b90506110d733858784611539565b949350505050565b7f9016d09d72d40fdae2fd8ceac6b6234c7706214fd39c1cd1e609a0528c19930080546001600160a01b031981166001600160a01b03848116918217845560405192169182907f8be0079c531659141344cd1fd0a4f28419497f9722a3daafe3b4186f6b6457e0905f90a3505050565b5f807ff0c57e16840df040f15088dc2f81fe391c3923bec73e23a9662efc9c229c6a00610758565b61117f61159b565b61084e82826115c0565b61119161159b565b610cb681611610565b6111a261159b565b610cb681611693565b5f5f195f6111b885610b84565b90506110d733858388611539565b5f806111d183610c1b565b9050808511156111fa57828582604051633fa733bb60e21b8152600401610ca4939291906120b8565b5f61120486610775565b9050611213338686898561169b565b95945050505050565b5f8061122783610c24565b90508085111561125057828582604051632e52afbb60e21b8152600401610ca4939291906120b8565b5f61125a8661074d565b9050611213338686848a61169b565b5f6112966112768361173a565b801561129157505f848061128c5761128c6120f2565b868809115b151590565b6112a1868686611766565b6112139190611fb7565b5f8051602061224c8339815191526001600160a01b0385166112e25760405163e602df0560e01b81525f6004820152602401610ca4565b6001600160a01b03841661130b57604051634a1406b160e11b81525f6004820152602401610ca4565b6001600160a01b038086165f9081526001830160209081526040808320938816835292905220839055811561138857836001600160a01b0316856001600160a01b03167f8c5be1e5ebec7d5bd14f71427d1e84f3dd0314c0f7b2291e5b200ac8c7c3b9258560405161137f91815260200190565b60405180910390a35b5050505050565b5f8051602061224c8339815191526001600160a01b0384166113c95781816002015f8282546113be9190611fb7565b909155506114269050565b6001600160a01b0384165f90815260208290526040902054828110156114085784818460405163391434e360e21b8152600401610ca4939291906120b8565b6001600160a01b0385165f9081526020839052604090209083900390555b6001600160a01b038316611444576002810180548390039055611462565b6001600160a01b0383165f9081526020829052604090208054830190555b826001600160a01b0316846001600160a01b03167fddf252ad1be2c89b69c2b068fc378daa952ba7f163c4a11628f55a4df523b3ef846040516114a791815260200190565b60405180910390a350505050565b6114be82611816565b6040516001600160a01b038316907fbc7cd75a20ee27fd9adebab32041f755214dbc6bffa90cc0225b39da2e5c2d3b905f90a280511561150257610d1d8282611879565b61084e611919565b5f8051602061228c8339815191525460020361093c57604051633ee5aeb560e01b815260040160405180910390fd5b6115438483611938565b61154d838261194b565b826001600160a01b0316846001600160a01b03167fdcbc1c05240f31ff3ad067ef1ee35ce4997762752e3a095284754544f4c709d784846040516114a7929190918252602082015260400190565b6115a361197f565b61093c57604051631afcd79f60e31b815260040160405180910390fd5b6115c861159b565b5f8051602061224c8339815191527f52c63247e1f47db19d5ce0460030c497f067ca4cebf71ba98eeadabe20bace03611601848261214a565b5060048101610ded838261214a565b61161861159b565b7f0773e532dfede91f04b12a73d3d2acd361424f41f76b4fb79f090161e36b4e005f8061164484611998565b9150915081611654576012611656565b805b83546001600160a81b031916600160a01b60ff92909216919091026001600160a01b031916176001600160a01b0394909416939093179091555050565b610c7f61159b565b826001600160a01b0316856001600160a01b0316146116bf576116bf838683610da2565b6116c98382611a23565b6116d38483611a57565b826001600160a01b0316846001600160a01b0316866001600160a01b03167ffbde797d201c681b91056529119e0b02407c7bb96a4a2c75c01fc9667232c8db858560405161172b929190918252602082015260400190565b60405180910390a45050505050565b5f600282600381111561174f5761174f61220a565b611759919061221e565b60ff166001149050919050565b5f805f6117738686611a69565b91509150815f036117975783818161178d5761178d6120f2565b04925050506107ef565b8184116117ae576117ae6003851502601118611a85565b5f848688095f868103871696879004966002600389028118808a02820302808a02820302808a02820302808a02820302808a02820302808a02909103029181900381900460010185841190960395909502919093039390930492909217029150509392505050565b806001600160a01b03163b5f0361184b57604051634c9c8ce360e01b81526001600160a01b0382166004820152602401610ca4565b5f8051602061226c83398151915280546001600160a01b0319166001600160a01b0392909216919091179055565b60605f6118868484611a96565b90508080156118a757505f3d11806118a757505f846001600160a01b03163b115b156118bc576118b4611aa9565b915050610758565b80156118e657604051639996b31560e01b81526001600160a01b0385166004820152602401610ca4565b3d156118f9576118f4611ac2565b611912565b60405163d6bda27560e01b815260040160405180910390fd5b5092915050565b341561093c5760405163b398979f60e01b815260040160405180910390fd5b61084e6119436107ff565b833084611acd565b6001600160a01b0382166119745760405163ec442f0560e01b81525f6004820152602401610ca4565b61084e5f838361138f565b5f61198861114f565b54600160401b900460ff16919050565b5f805f6119a460405190565b6040805160048152602481019091526020810180516001600160e01b031663313ce56760e01b1790529091505f9081906119df908790611b03565b50915091506119ed83604052565b8180156119fb575060203d10155b8015611a08575060ff8111155b611a13575f80611a17565b6001815b94509450505050915091565b6001600160a01b038216611a4c57604051634b637e8f60e11b81525f6004820152602401610ca4565b61084e825f8361138f565b61084e611a626107ff565b8383611b24565b5f805f1983850993909202808410938190039390930393915050565b634e487b715f52806020526024601cfd5b5f805f835160208501865af49392505050565b6040513d81523d5f602083013e3d602001810160405290565b6040513d5f823e3d81fd5b611adb848484846001611b59565b610ded57604051635274afe760e01b81526001600160a01b0385166004820152602401610ca4565b5f805f60405f855160208701885afa92505f51915060205190509250925092565b611b318383836001611bc6565b610d1d57604051635274afe760e01b81526001600160a01b0384166004820152602401610ca4565b6040516323b872dd60e01b5f8181526001600160a01b038781166004528616602452604485905291602083606481808c5af1925060015f51148316611bb5578383151615611ba9573d5f823e3d81fd5b5f883b113d1516831692505b604052505f60605295945050505050565b60405163a9059cbb60e01b5f8181526001600160a01b038616600452602485905291602083604481808b5af1925060015f51148316611c1c578383151615611c10573d5f823e3d81fd5b5f873b113d1516831692505b60405250949350505050565b5f602080835283518060208501525f5b81811015611c5457858101830151858201604001528201611c38565b505f604082860101526040601f19601f8301168501019250505092915050565b5f60208284031215611c84575f80fd5b5035919050565b80356001600160a01b0381168114611ca1575f80fd5b919050565b5f8060408385031215611cb7575f80fd5b611cc083611c8b565b946020939093013593505050565b5f60208284031215611cde575f80fd5b813580151581146107ef575f80fd5b5f805f60608486031215611cff575f80fd5b611d0884611c8b565b9250611d1660208501611c8b565b9150604084013590509250925092565b5f60208284031215611d36575f80fd5b6107ef82611c8b565b634e487b7160e01b5f52604160045260245ffd5b5f67ffffffffffffffff80841115611d6d57611d6d611d3f565b604051601f8501601f19908116603f01168101908282118183101715611d9557611d95611d3f565b81604052809350858152868686011115611dad575f80fd5b858560208301375f602087830101525050509392505050565b5f8060408385031215611dd7575f80fd5b611de083611c8b565b9150602083013567ffffffffffffffff811115611dfb575f80fd5b8301601f81018513611e0b575f80fd5b611e1a85823560208401611d53565b9150509250929050565b5f8060408385031215611e35575f80fd5b82359150611e4560208401611c8b565b90509250929050565b5f82601f830112611e5d575f80fd5b6107ef83833560208501611d53565b5f805f805f60a08688031215611e80575f80fd5b611e8986611c8b565b9450602086013567ffffffffffffffff80821115611ea5575f80fd5b611eb189838a01611e4e565b95506040880135915080821115611ec6575f80fd5b50611ed388828901611e4e565b935050611ee260608701611c8b565b949793965091946080013592915050565b5f805f60608486031215611f05575f80fd5b83359250611f1560208501611c8b565b9150611f2360408501611c8b565b90509250925092565b5f8060408385031215611f3d575f80fd5b611f4683611c8b565b9150611e4560208401611c8b565b5f60208284031215611f64575f80fd5b5051919050565b600181811c90821680611f7f57607f821691505b602082108103611f9d57634e487b7160e01b5f52602260045260245ffd5b50919050565b634e487b7160e01b5f52601160045260245ffd5b8082018082111561075857610758611fa3565b600181815b8085111561200457815f1904821115611fea57611fea611fa3565b80851615611ff757918102915b93841c9390800290611fcf565b509250929050565b5f8261201a57506001610758565b8161202657505f610758565b816001811461203c576002811461204657612062565b6001915050610758565b60ff84111561205757612057611fa3565b50506001821b610758565b5060208310610133831016604e8410600b8410161715612085575081810a610758565b61208f8383611fca565b805f19048211156120a2576120a2611fa3565b029392505050565b5f6107ef60ff84168361200c565b6001600160a01b039390931683526020830191909152604082015260600190565b60ff818116838216019081111561075857610758611fa3565b634e487b7160e01b5f52601260045260245ffd5b601f821115610d1d57805f5260205f20601f840160051c8101602085101561212b5750805b601f840160051c820191505b81811015611388575f8155600101612137565b815167ffffffffffffffff81111561216457612164611d3f565b612178816121728454611f6b565b84612106565b602080601f8311600181146121ab575f84156121945750858301515b5f19600386901b1c1916600185901b178555612202565b5f85815260208120601f198616915b828110156121d9578886015182559484019460019091019084016121ba565b50858210156121f657878501515f19600388901b60f8161c191681555b505060018460011b0185555b505050505050565b634e487b7160e01b5f52602160045260245ffd5b5f60ff83168061223c57634e487b7160e01b5f52601260045260245ffd5b8060ff8416069150509291505056fe52c63247e1f47db19d5ce0460030c497f067ca4cebf71ba98eeadabe20bace00360894a13ba1a3210667c828492db98dca3e2076cc3735a920a3ca505d382bbc9b779b17422d0df92223018b32b4d1fa46e071723d6817e2486d003becc55f00a26469706673582212205a39b2109928d4fe0ff54e346b4a485a9ee8748dfd6ed19f67ffafaf48ebc11164736f6c63430008180033","linkReferences":{}},"methodIdentifiers":{"UPGRADE_INTERFACE_VERSION()":"ad3cb1cc","allowance(address,address)":"dd62ed3e","approve(address,uint256)":"095ea7b3","asset()":"38d52e0f","balanceOf(address)":"70a08231","convertToAssets(uint256)":"07a2d13a","convertToShares(uint256)":"c6e6f592","decimals()":"313ce567","deposit(uint256,address)":"6e553f65","depositCap()":"dbd5edc7","depositsPaused()":"60da3e83","initialize(address,string,string,address,uint256)":"75b30be6","maxDeposit(address)":"402d267d","maxMint(address)":"c63d75b6","maxRedeem(address)":"d905777e","maxWithdraw(address)":"ce96cb77","mint(uint256,address)":"94bf804d","name()":"06fdde03","owner()":"8da5cb5b","previewDeposit(uint256)":"ef8b30f7","previewMint(uint256)":"b3d7f6b9","previewRedeem(uint256)":"4cdad506","previewWithdraw(uint256)":"0a28a477","proxiableUUID()":"52d1902d","redeem(uint256,address,address)":"ba087652","renounceOwnership()":"715018a6","setDepositCap(uint256)":"86651203","setDepositsPaused(bool)":"1c481e2d","symbol()":"95d89b41","totalAssets()":"01e1d114","totalSupply()":"18160ddd","transfer(address,uint256)":"a9059cbb","transferFrom(address,address,uint256)":"23b872dd","transferOwnership(address)":"f2fde38b","upgradeToAndCall(address,bytes)":"4f1ef286","withdraw(uint256,address,address)":"b460af94"},"id":30}